{
  "_format": "hh-sol-artifact-1",
  "contractName": "DiamondProxy",
  "sourceName": "contracts/DiamondProxy.sol",
  "abi": [
    {
      "inputs": [],
      "stateMutability": "nonpayable",
      "type": "constructor"
    },
    {
      "anonymous": false,
      "inputs": [
        {
          "indexed": false,
          "internalType": "address",
          "name": "oldAdmin",
          "type": "address"
        },
        {
          "indexed": false,
          "internalType": "address",
          "name": "newAdmin",
          "type": "address"
        }
      ],
      "name": "AdminChanged",
      "type": "event"
    },
    {
      "anonymous": false,
      "inputs": [
        {
          "indexed": true,
          "internalType": "address",
          "name": "facetAddress",
          "type": "address"
        },
        {
          "indexed": false,
          "internalType": "bytes4[]",
          "name": "functionSelectors",
          "type": "bytes4[]"
        }
      ],
      "name": "FacetAdded",
      "type": "event"
    },
    {
      "anonymous": false,
      "inputs": [
        {
          "indexed": true,
          "internalType": "address",
          "name": "facetAddress",
          "type": "address"
        },
        {
          "indexed": false,
          "internalType": "bytes4[]",
          "name": "functionSelectors",
          "type": "bytes4[]"
        }
      ],
      "name": "FacetRemoved",
      "type": "event"
    },
    {
      "stateMutability": "payable",
      "type": "fallback"
    },
    {
      "inputs": [
        {
          "internalType": "address",
          "name": "_facetAddress",
          "type": "address"
        },
        {
          "internalType": "bytes4[]",
          "name": "_selectors",
          "type": "bytes4[]"
        }
      ],
      "name": "addFacet",
      "outputs": [],
      "stateMutability": "nonpayable",
      "type": "function"
    },
    {
      "inputs": [
        {
          "internalType": "address",
          "name": "",
          "type": "address"
        }
      ],
      "name": "authorizedFacets",
      "outputs": [
        {
          "internalType": "bool",
          "name": "",
          "type": "bool"
        }
      ],
      "stateMutability": "view",
      "type": "function"
    },
    {
      "inputs": [],
      "name": "getAdmin",
      "outputs": [
        {
          "internalType": "address",
          "name": "",
          "type": "address"
        }
      ],
      "stateMutability": "view",
      "type": "function"
    },
    {
      "inputs": [
        {
          "internalType": "bytes4",
          "name": "_selector",
          "type": "bytes4"
        }
      ],
      "name": "getFacetAddress",
      "outputs": [
        {
          "internalType": "address",
          "name": "",
          "type": "address"
        }
      ],
      "stateMutability": "view",
      "type": "function"
    },
    {
      "inputs": [
        {
          "internalType": "address",
          "name": "_facetAddress",
          "type": "address"
        },
        {
          "internalType": "bytes4[]",
          "name": "_selectors",
          "type": "bytes4[]"
        }
      ],
      "name": "removeFacet",
      "outputs": [],
      "stateMutability": "nonpayable",
      "type": "function"
    },
    {
      "inputs": [
        {
          "internalType": "bytes4",
          "name": "",
          "type": "bytes4"
        }
      ],
      "name": "selectorToFacet",
      "outputs": [
        {
          "internalType": "address",
          "name": "",
          "type": "address"
        }
      ],
      "stateMutability": "view",
      "type": "function"
    },
    {
      "inputs": [
        {
          "internalType": "address",
          "name": "_newAdmin",
          "type": "address"
        }
      ],
      "name": "setAdmin",
      "outputs": [],
      "stateMutability": "nonpayable",
      "type": "function"
    },
    {
      "stateMutability": "payable",
      "type": "receive"
    }
  ],
  "bytecode": "0x608060405234801561001057600080fd5b506100203361002560201b60201c565b6100ab565b600061003561007e60201b60201c565b9050818160000160006101000a81548173ffffffffffffffffffffffffffffffffffffffff021916908373ffffffffffffffffffffffffffffffffffffffff1602179055505050565b6000807f65c91236ea8dee2e3ec79868993b70a6ed3867d92e7cce703fd55b66aaa671de90508091505090565b61110a806100ba6000396000f3fe6080604052600436106100745760003560e01c80637a070c2d1161004e5780637a070c2d14610225578063ae7473ac14610262578063cf380c861461029f578063df891096146102c85761007b565b80635547dad6146101a85780636e9960c3146101d1578063704b6c02146101fc5761007b565b3661007b57005b600080600080357fffffffff00000000000000000000000000000000000000000000000000000000167bffffffffffffffffffffffffffffffffffffffffffffffffffffffff19167bffffffffffffffffffffffffffffffffffffffffffffffffffffffff1916815260200190815260200160002060009054906101000a900473ffffffffffffffffffffffffffffffffffffffff169050600073ffffffffffffffffffffffffffffffffffffffff168173ffffffffffffffffffffffffffffffffffffffff1603610182576040517f08c379a000000000000000000000000000000000000000000000000000000000815260040161017990610a7e565b60405180910390fd5b3660008037600080366000845af43d6000803e80600081146101a3573d6000f35b3d6000fd5b3480156101b457600080fd5b506101cf60048036038101906101ca9190610cc1565b610305565b005b3480156101dd57600080fd5b506101e6610579565b6040516101f39190610d2c565b60405180910390f35b34801561020857600080fd5b50610223600480360381019061021e9190610d47565b610588565b005b34801561023157600080fd5b5061024c60048036038101906102479190610d74565b610649565b6040516102599190610d2c565b60405180910390f35b34801561026e57600080fd5b5061028960048036038101906102849190610d74565b6106c3565b6040516102969190610d2c565b60405180910390f35b3480156102ab57600080fd5b506102c660048036038101906102c19190610cc1565b6106f6565b005b3480156102d457600080fd5b506102ef60048036038101906102ea9190610d47565b61094e565b6040516102fc9190610dbc565b60405180910390f35b61030d61096e565b73ffffffffffffffffffffffffffffffffffffffff163373ffffffffffffffffffffffffffffffffffffffff161461037a576040517f08c379a000000000000000000000000000000000000000000000000000000000815260040161037190610e23565b60405180910390fd5b600160008373ffffffffffffffffffffffffffffffffffffffff1673ffffffffffffffffffffffffffffffffffffffff16815260200190815260200160002060009054906101000a900460ff1615610407576040517f08c379a00000000000000000000000000000000000000000000000000000000081526004016103fe90610e8f565b60405180910390fd5b60005b81518110156104cf578260008084848151811061042a57610429610eaf565b5b60200260200101517bffffffffffffffffffffffffffffffffffffffffffffffffffffffff19167bffffffffffffffffffffffffffffffffffffffffffffffffffffffff1916815260200190815260200160002060006101000a81548173ffffffffffffffffffffffffffffffffffffffff021916908373ffffffffffffffffffffffffffffffffffffffff16021790555080806104c790610f17565b91505061040a565b5060018060008473ffffffffffffffffffffffffffffffffffffffff1673ffffffffffffffffffffffffffffffffffffffff16815260200190815260200160002060006101000a81548160ff0219169083151502179055508173ffffffffffffffffffffffffffffffffffffffff167fca14aa63fbdd3798d76f3340b1fa4c2401c80a3cabbe92633daf76fa31a89d468260405161056d919061101d565b60405180910390a25050565b600061058361096e565b905090565b61059061096e565b73ffffffffffffffffffffffffffffffffffffffff163373ffffffffffffffffffffffffffffffffffffffff16146105fd576040517f08c379a00000000000000000000000000000000000000000000000000000000081526004016105f490610e23565b60405180910390fd5b610606816109a1565b7f7e644d79422f17c01e4894b5f4f588d331ebfa28653d42ae832dc59e38c9798f61062f61096e565b8260405161063e92919061103f565b60405180910390a150565b6000806000837bffffffffffffffffffffffffffffffffffffffffffffffffffffffff19167bffffffffffffffffffffffffffffffffffffffffffffffffffffffff1916815260200190815260200160002060009054906101000a900473ffffffffffffffffffffffffffffffffffffffff169050919050565b60006020528060005260406000206000915054906101000a900473ffffffffffffffffffffffffffffffffffffffff1681565b6106fe61096e565b73ffffffffffffffffffffffffffffffffffffffff163373ffffffffffffffffffffffffffffffffffffffff161461076b576040517f08c379a000000000000000000000000000000000000000000000000000000000815260040161076290610e23565b60405180910390fd5b600160008373ffffffffffffffffffffffffffffffffffffffff1673ffffffffffffffffffffffffffffffffffffffff16815260200190815260200160002060009054906101000a900460ff166107f7576040517f08c379a00000000000000000000000000000000000000000000000000000000081526004016107ee906110b4565b60405180910390fd5b60005b81518110156108a35760008083838151811061081957610818610eaf565b5b60200260200101517bffffffffffffffffffffffffffffffffffffffffffffffffffffffff19167bffffffffffffffffffffffffffffffffffffffffffffffffffffffff1916815260200190815260200160002060006101000a81549073ffffffffffffffffffffffffffffffffffffffff0219169055808061089b90610f17565b9150506107fa565b506000600160008473ffffffffffffffffffffffffffffffffffffffff1673ffffffffffffffffffffffffffffffffffffffff16815260200190815260200160002060006101000a81548160ff0219169083151502179055508173ffffffffffffffffffffffffffffffffffffffff167f12d33bc05d98aff644f711645889fe857e8ba99d90f6a469dfbab6921fb7de8182604051610942919061101d565b60405180910390a25050565b60016020528060005260406000206000915054906101000a900460ff1681565b60006109786109f4565b60000160009054906101000a900473ffffffffffffffffffffffffffffffffffffffff16905090565b60006109ab6109f4565b9050818160000160006101000a81548173ffffffffffffffffffffffffffffffffffffffff021916908373ffffffffffffffffffffffffffffffffffffffff1602179055505050565b6000807f65c91236ea8dee2e3ec79868993b70a6ed3867d92e7cce703fd55b66aaa671de90508091505090565b600082825260208201905092915050565b7f46756e6374696f6e20646f6573206e6f74206578697374000000000000000000600082015250565b6000610a68601783610a21565b9150610a7382610a32565b602082019050919050565b60006020820190508181036000830152610a9781610a5b565b9050919050565b6000604051905090565b600080fd5b600080fd5b600073ffffffffffffffffffffffffffffffffffffffff82169050919050565b6000610add82610ab2565b9050919050565b610aed81610ad2565b8114610af857600080fd5b50565b600081359050610b0a81610ae4565b92915050565b600080fd5b6000601f19601f8301169050919050565b7f4e487b7100000000000000000000000000000000000000000000000000000000600052604160045260246000fd5b610b5e82610b15565b810181811067ffffffffffffffff82111715610b7d57610b7c610b26565b5b80604052505050565b6000610b90610a9e565b9050610b9c8282610b55565b919050565b600067ffffffffffffffff821115610bbc57610bbb610b26565b5b602082029050602081019050919050565b600080fd5b60007fffffffff0000000000000000000000000000000000000000000000000000000082169050919050565b610c0781610bd2565b8114610c1257600080fd5b50565b600081359050610c2481610bfe565b92915050565b6000610c3d610c3884610ba1565b610b86565b90508083825260208201905060208402830185811115610c6057610c5f610bcd565b5b835b81811015610c895780610c758882610c15565b845260208401935050602081019050610c62565b5050509392505050565b600082601f830112610ca857610ca7610b10565b5b8135610cb8848260208601610c2a565b91505092915050565b60008060408385031215610cd857610cd7610aa8565b5b6000610ce685828601610afb565b925050602083013567ffffffffffffffff811115610d0757610d06610aad565b5b610d1385828601610c93565b9150509250929050565b610d2681610ad2565b82525050565b6000602082019050610d416000830184610d1d565b92915050565b600060208284031215610d5d57610d5c610aa8565b5b6000610d6b84828501610afb565b91505092915050565b600060208284031215610d8a57610d89610aa8565b5b6000610d9884828501610c15565b91505092915050565b60008115159050919050565b610db681610da1565b82525050565b6000602082019050610dd16000830184610dad565b92915050565b7f4e6f742061646d696e0000000000000000000000000000000000000000000000600082015250565b6000610e0d600983610a21565b9150610e1882610dd7565b602082019050919050565b60006020820190508181036000830152610e3c81610e00565b9050919050565b7f466163657420616c726561647920616464656400000000000000000000000000600082015250565b6000610e79601383610a21565b9150610e8482610e43565b602082019050919050565b60006020820190508181036000830152610ea881610e6c565b9050919050565b7f4e487b7100000000000000000000000000000000000000000000000000000000600052603260045260246000fd5b7f4e487b7100000000000000000000000000000000000000000000000000000000600052601160045260246000fd5b6000819050919050565b6000610f2282610f0d565b91507fffffffffffffffffffffffffffffffffffffffffffffffffffffffffffffffff8203610f5457610f53610ede565b5b600182019050919050565b600081519050919050565b600082825260208201905092915050565b6000819050602082019050919050565b610f9481610bd2565b82525050565b6000610fa68383610f8b565b60208301905092915050565b6000602082019050919050565b6000610fca82610f5f565b610fd48185610f6a565b9350610fdf83610f7b565b8060005b83811015611010578151610ff78882610f9a565b975061100283610fb2565b925050600181019050610fe3565b5085935050505092915050565b600060208201905081810360008301526110378184610fbf565b905092915050565b60006040820190506110546000830185610d1d565b6110616020830184610d1d565b9392505050565b7f4661636574206e6f7420666f756e640000000000000000000000000000000000600082015250565b600061109e600f83610a21565b91506110a982611068565b602082019050919050565b600060208201905081810360008301526110cd81611091565b905091905056fea2646970667358221220808792db18cb417107e76e0b79a2281f6be61e7b691c12b55b22f309e96be50c64736f6c63430008140033",
  "linkReferences": {},
  "deployedLinkReferences": {}
}