{
  "_format": "hh-sol-artifact-1",
  "contractName": "AccessRegistry",
  "sourceName": "contracts/AccessRegistry.sol",
  "abi": [
    {
      "inputs": [],
      "stateMutability": "nonpayable",
      "type": "constructor"
    },
    {
      "anonymous": false,
      "inputs": [
        {
          "indexed": true,
          "internalType": "address",
          "name": "newAdmin",
          "type": "address"
        }
      ],
      "name": "AdminAdded",
      "type": "event"
    },
    {
      "anonymous": false,
      "inputs": [
        {
          "indexed": true,
          "internalType": "address",
          "name": "admin",
          "type": "address"
        }
      ],
      "name": "AdminRemoved",
      "type": "event"
    },
    {
      "anonymous": false,
      "inputs": [
        {
          "indexed": true,
          "internalType": "address",
          "name": "oldAdmin",
          "type": "address"
        },
        {
          "indexed": true,
          "internalType": "address",
          "name": "newAdmin",
          "type": "address"
        }
      ],
      "name": "AdminTransferred",
      "type": "event"
    },
    {
      "inputs": [
        {
          "internalType": "address",
          "name": "_admin",
          "type": "address"
        }
      ],
      "name": "addAdmin",
      "outputs": [],
      "stateMutability": "nonpayable",
      "type": "function"
    },
    {
      "inputs": [],
      "name": "getCurrentAdmin",
      "outputs": [
        {
          "internalType": "address",
          "name": "",
          "type": "address"
        }
      ],
      "stateMutability": "view",
      "type": "function"
    },
    {
      "inputs": [],
      "name": "removeAdmin",
      "outputs": [],
      "stateMutability": "nonpayable",
      "type": "function"
    },
    {
      "inputs": [],
      "name": "superAdmin",
      "outputs": [
        {
          "internalType": "address",
          "name": "",
          "type": "address"
        }
      ],
      "stateMutability": "view",
      "type": "function"
    },
    {
      "inputs": [
        {
          "internalType": "address",
          "name": "_newAdmin",
          "type": "address"
        }
      ],
      "name": "transferAdminRole",
      "outputs": [],
      "stateMutability": "nonpayable",
      "type": "function"
    }
  ],
  "bytecode": "0x608060405234801561001057600080fd5b50336000806101000a81548173ffffffffffffffffffffffffffffffffffffffff021916908373ffffffffffffffffffffffffffffffffffffffff1602179055506100603361006560201b60201c565b6100eb565b60006100756100be60201b60201c565b9050818160000160006101000a81548173ffffffffffffffffffffffffffffffffffffffff021916908373ffffffffffffffffffffffffffffffffffffffff1602179055505050565b6000807f65c91236ea8dee2e3ec79868993b70a6ed3867d92e7cce703fd55b66aaa671de90508091505090565b610832806100fa6000396000f3fe608060405234801561001057600080fd5b50600436106100575760003560e01c806329575f6a1461005c578063643d430c1461007a57806370480275146100985780639a202d47146100b4578063ada8f919146100be575b600080fd5b6100646100da565b6040516100719190610608565b60405180910390f35b6100826100fe565b60405161008f9190610608565b60405180910390f35b6100b260048036038101906100ad9190610654565b61010d565b005b6100bc6101ea565b005b6100d860048036038101906100d39190610654565b6102d4565b005b60008054906101000a900473ffffffffffffffffffffffffffffffffffffffff1681565b6000610108610514565b905090565b60008054906101000a900473ffffffffffffffffffffffffffffffffffffffff1673ffffffffffffffffffffffffffffffffffffffff163373ffffffffffffffffffffffffffffffffffffffff161461019b576040517f08c379a0000000000000000000000000000000000000000000000000000000008152600401610192906106de565b60405180910390fd5b6101a481610547565b8073ffffffffffffffffffffffffffffffffffffffff167f44d6d25963f097ad14f29f06854a01f575648a1ef82f30e562ccd3889717e33960405160405180910390a250565b60008054906101000a900473ffffffffffffffffffffffffffffffffffffffff1673ffffffffffffffffffffffffffffffffffffffff163373ffffffffffffffffffffffffffffffffffffffff1614610278576040517f08c379a000000000000000000000000000000000000000000000000000000000815260040161026f906106de565b60405180910390fd5b6000610282610514565b905061028e6000610547565b8073ffffffffffffffffffffffffffffffffffffffff167fa3b62bc36326052d97ea62d63c3d60308ed4c3ea8ac079dd8499f1e9c4f80c0f60405160405180910390a250565b60008054906101000a900473ffffffffffffffffffffffffffffffffffffffff1673ffffffffffffffffffffffffffffffffffffffff163373ffffffffffffffffffffffffffffffffffffffff1614610362576040517f08c379a0000000000000000000000000000000000000000000000000000000008152600401610359906106de565b60405180910390fd5b600061036c610514565b9050600073ffffffffffffffffffffffffffffffffffffffff168273ffffffffffffffffffffffffffffffffffffffff16036103dd576040517f08c379a00000000000000000000000000000000000000000000000000000000081526004016103d49061074a565b60405180910390fd5b8073ffffffffffffffffffffffffffffffffffffffff168273ffffffffffffffffffffffffffffffffffffffff160361044b576040517f08c379a0000000000000000000000000000000000000000000000000000000008152600401610442906107dc565b60405180910390fd5b3373ffffffffffffffffffffffffffffffffffffffff1663704b6c02836040518263ffffffff1660e01b81526004016104849190610608565b600060405180830381600087803b15801561049e57600080fd5b505af11580156104b2573d6000803e3d6000fd5b505050508173ffffffffffffffffffffffffffffffffffffffff168173ffffffffffffffffffffffffffffffffffffffff167ff8ccb027dfcd135e000e9d45e6cc2d662578a8825d4c45b5e32e0adf67e79ec660405160405180910390a35050565b600061051e61059a565b60000160009054906101000a900473ffffffffffffffffffffffffffffffffffffffff16905090565b600061055161059a565b9050818160000160006101000a81548173ffffffffffffffffffffffffffffffffffffffff021916908373ffffffffffffffffffffffffffffffffffffffff1602179055505050565b6000807f65c91236ea8dee2e3ec79868993b70a6ed3867d92e7cce703fd55b66aaa671de90508091505090565b600073ffffffffffffffffffffffffffffffffffffffff82169050919050565b60006105f2826105c7565b9050919050565b610602816105e7565b82525050565b600060208201905061061d60008301846105f9565b92915050565b600080fd5b610631816105e7565b811461063c57600080fd5b50565b60008135905061064e81610628565b92915050565b60006020828403121561066a57610669610623565b5b60006106788482850161063f565b91505092915050565b600082825260208201905092915050565b7f4e6f742073757065722061646d696e0000000000000000000000000000000000600082015250565b60006106c8600f83610681565b91506106d382610692565b602082019050919050565b600060208201905081810360008301526106f7816106bb565b9050919050565b7f4e65772061646d696e2063616e6e6f74206265207a65726f2061646472657373600082015250565b6000610734602083610681565b915061073f826106fe565b602082019050919050565b6000602082019050818103600083015261076381610727565b9050919050565b7f4e65772061646d696e206973207468652073616d652061732063757272656e7460008201527f2061646d696e0000000000000000000000000000000000000000000000000000602082015250565b60006107c6602683610681565b91506107d18261076a565b604082019050919050565b600060208201905081810360008301526107f5816107b9565b905091905056fea2646970667358221220cdde5fe5d1b0ecd7aceb0f9a0eb4ed9e91bef68d205b125a57cbdedf92bd1b2364736f6c63430008140033",
  "linkReferences": {},
  "deployedLinkReferences": {}
}