{
  "_format": "hh-sol-artifact-1",
  "contractName": "FacetA",
  "sourceName": "contracts/FaccetA.sol",
  "abi": [
    {
      "anonymous": false,
      "inputs": [
        {
          "indexed": false,
          "internalType": "uint256",
          "name": "oldValue",
          "type": "uint256"
        },
        {
          "indexed": false,
          "internalType": "uint256",
          "name": "newValue",
          "type": "uint256"
        }
      ],
      "name": "ValueChanged",
      "type": "event"
    },
    {
      "inputs": [],
      "name": "getValue",
      "outputs": [
        {
          "internalType": "uint256",
          "name": "",
          "type": "uint256"
        }
      ],
      "stateMutability": "view",
      "type": "function"
    },
    {
      "inputs": [
        {
          "internalType": "uint256",
          "name": "_value",
          "type": "uint256"
        }
      ],
      "name": "setValue",
      "outputs": [],
      "stateMutability": "nonpayable",
      "type": "function"
    }
  ],
  "bytecode": "0x608060405234801561001057600080fd5b506103a0806100206000396000f3fe608060405234801561001057600080fd5b50600436106100365760003560e01c8063209652551461003b5780635524107714610059575b600080fd5b610043610075565b60405161005091906101e8565b60405180910390f35b610073600480360381019061006e9190610234565b610088565b005b600061007f61016f565b60010154905090565b61009061019c565b73ffffffffffffffffffffffffffffffffffffffff163373ffffffffffffffffffffffffffffffffffffffff16146100fd576040517f08c379a00000000000000000000000000000000000000000000000000000000081526004016100f4906102be565b60405180910390fd5b600061010761016f565b905060008160010154905082826001016000828254610126919061030d565b925050819055507f2db947ef788961acc438340dbcb4e242f80d026b621b7c98ee30619950390382818360010154604051610162929190610341565b60405180910390a1505050565b6000807f65c91236ea8dee2e3ec79868993b70a6ed3867d92e7cce703fd55b66aaa671de90508091505090565b60006101a661016f565b60000160009054906101000a900473ffffffffffffffffffffffffffffffffffffffff16905090565b6000819050919050565b6101e2816101cf565b82525050565b60006020820190506101fd60008301846101d9565b92915050565b600080fd5b610211816101cf565b811461021c57600080fd5b50565b60008135905061022e81610208565b92915050565b60006020828403121561024a57610249610203565b5b60006102588482850161021f565b91505092915050565b600082825260208201905092915050565b7f4e6f742061646d696e0000000000000000000000000000000000000000000000600082015250565b60006102a8600983610261565b91506102b382610272565b602082019050919050565b600060208201905081810360008301526102d78161029b565b9050919050565b7f4e487b7100000000000000000000000000000000000000000000000000000000600052601160045260246000fd5b6000610318826101cf565b9150610323836101cf565b925082820190508082111561033b5761033a6102de565b5b92915050565b600060408201905061035660008301856101d9565b61036360208301846101d9565b939250505056fea26469706673582212204196efaea72dbac9e126e311f1ad76bc5d5b1722960b9d83d69bd0a550a0aeb064736f6c63430008140033",
  "linkReferences": {},
  "deployedLinkReferences": {}
}